:020000040800F2
:1000000018500020550200085D1200086911000810
:10001000591200084D0500084915000800000000AD
:10002000000000000000000000000000D1120008E5
:1000300051050008000000006112000821130008AB
:100040006F0200086F0200086F0200086F020008CC
:100050006F0200086F0200086F0200086F020008BC
:100060006F0200086F0200086F0200086F020008AC
:100070006F0200086F0200086F0200086F0200089C
:100080006F0200086F0200086F0200086F0200088C
:100090006F0200086F0200086F0200086F0200087C
:1000A0006F0200086F0200086F0200086F0200086C
:1000B0006F0200086F0200086F0200086F0200085C
:1000C0006F0200086F0200086F0200086F0200084C
:1000D0006F0200086F0200086F0200086F0200083C
:1000E0006F0200086F0200086F0200086F0200082C
:1000F000011400086F0200086F0200086F02000878
:100100006F0200086F0200086F0200086F0200080B
:100110006F0200086F0200086F0200086F020008FB
:100120006F0200086F0200086F0200086F020008EB
:100130006F0200086F0200086F0200086F020008DB
:100140006F0200086F0200086F0200086F020008CB
:100150006F0200086F0200086F0200086F020008BB
:100160006F0200086F0200086F0200086F020008AB
:100170006F0200086F0200086F0200080000000014
:100180006F0200086F02000800F002F800F052F859
:1001900014A696E8000CB244B344DA4501D100F04D
:1001A00049F8BAE80F000FA696E83000A5EB040561
:1001B00004EB0607AAEB0704A7F101074FEA1515A0
:1001C0004FEA3414A4F10104AC4201D300F032F838
:1001D00013F0010F18BFFB1A43F0010300F001F800
:1001E000DBE718476033000080330000103A24BF7B
:1001F00078C878C1FAD8520724BF30C830C144BF8C
:1002000004680C6070470000704700000023002461
:1002100000250026103A28BF78C1FBD8520728BF16
:1002200030C148BF0B6070471FB503F029F91FBDEF
:1002300010B510BD00F04FF91146FFF7F5FF01F0C2
:1002400085F900F06DF903B4FFF7F2FF03BC00F08D
:1002500075F900000948804709480047FEE7FEE7B6
:10026000FEE7FEE7FEE7FEE7FEE7FEE7FEE7FEE766
:1002700004480549054A064B70470000ED13000885
:1002800089010008184A002018500020184C00204E
:10029000184C002053EA020C00F069802DE9F04B65
:1002A0004FF00006002B1FBFB3FA83F503FA05F4E5
:1002B00024FA05F65E4012BF1643B2FA82F502FA3E
:1002C00005F4C5F120051EBF22FA05FC44EA0C0422
:1002D000203556EA044C4FEA144418BF641C4FF012
:1002E00000084FF00009904271EB030C39D300294C
:1002F00019BFB1FA81F701FA07F6B0FA80F700FAF0
:1003000007F6C7F120071EBF20FA07FC46EA0C06D5
:100310002037B6FBF4FCA7EB0507103F07F01F0BD7
:10032000CBF120062CFA06F60CFA0BFB44BFB346C1
:100330000026202FA4BF5E464FF0000B5BEA060CA0
:1003400008BF4FF0010B19EB0B0948EB0608ABFB9C
:10035000027C06FB02CC0BFB03CCC01B71EB0C0137
:10036000C1E70B46024641464846BDE8F08B13B54F
:10037000084318BF4FF0FF300146AFF30080BDE8DF
:100380001C407047032A40F2308010F0030C00F04C
:10039000158011F8013BBCF1020F624498BF11F8BF
:1003A00001CB00F8013B38BF11F8013BA2F1040278
:1003B00098BF00F801CB38BF00F8013B11F00303F0
:1003C00000F05780083AC0F0088051F8043B083A22
:1003D00051F804CBA0E80810F5E7121D5CBF51F8F6
:1003E000043B40F8043BAFF30080D20724BF11F870
:1003F000013B11F801CB48BF11F8012B24BF00F8D5
:10040000013B00F801CB48BF00F8012B704702F018
:10041000FF0343EA032242EA024200F002B84FF02F
:10042000000200B5134694469646203922BFA0E844
:100430000C50A0E80C50B1F12001BFF4F7AF090750
:1004400028BFA0E80C5048BF0CC05DF804EB890041
:1004500028BF40F8042B08BF704748BF20F8022B84
:1004600011F0804F18BF00F8012B7047704770479C
:10047000704710B5203AC0F00B80B1E81850A0E8E2
:100480001850B1E81850A0E81850203ABFF4F5AF62
:100490005FEA027C24BFB1E81850A0E8185044BFBE
:1004A00018C918C0BDE810405FEA827C24BF51F82B
:1004B000043B40F8043B08BF7047D20728BF31F81F
:1004C000023B48BF11F8012B28BF20F8023B48BF70
:1004D00000F8012B7047754600F02CF8AE46050079
:1004E0006946534620F00700854618B020B5FFF74F
:1004F000BFFEBDE820404FF000064FF000074FF070
:1005000000084FF0000BAC46ACE8C009ACE8C009ED
:10051000ACE8C009ACE8C00921F007018D4670477E
:1005200010B50446AFF300802046BDE81040FFF749
:100530008ABE0000004870471000002001491820C2
:10054000ABBEFEE72600020070470000FEE7000099
:10055000704700002DE9F04F83B000F1200200F158
:100560003E4741F60045009207F1FF77C4F20205CD
:1005700008224FEAB726A84208BF072200254FF0FD
:1005800000084FF00009072E38BF4FEAB72201924A
:100590000AE000BF09F1010908F10208B9F1100FE2
:1005A00005F1040500F0A2800F68012202FA09FE9D
:1005B00017EA0E0AEED0D1F804C003220CF00307AC
:1005C0007E1E02FA08F4012E6FEA040B12D884682A
:1005D000CE6804EA0B0406FA08F6344384604468E3
:1005E00024EA0E06CCF3001404FA09F4264346600C
:1005F00004E000BF032F01D103271EE0C6688C680A
:1006000006EA0B0604FA08F42643022FC66014D14A
:100610006FF00302009E02EA590756F807C005F082
:100620001C040F220B69A2402CEA0202A3401A43C9
:10063000F251D1F804C00CF00307026807FA08F37E
:1006400002EA0B021A431CF4403F0260A2D00022CF
:1006500043F644030292C4F202031A6843F60044CC
:1006600042F480421A601A68C4F2010402F4804223
:100670000292029A29F003024FF6084C2244CFF668
:10068000FF7C52F80C3005F00C070F26BE40B34338
:10069000019E06FA07F73B4342F80C30A2684B680C
:1006A00042EA0A0743F60C4CDE0258BF22EA0A0768
:1006B000A760C4F2010CDCF800209E0242EA0A079F
:1006C00058BF22EA0A07CCF8007062689E0342EA2B
:1006D0000A0758BF22EA0A0767602268DB0342EA7A
:1006E0000A0758BF22EA0A07276053E703B0BDE8AC
:1006F000F08F0000426902EA0103914341EA03419D
:1007000081617047002A08BF0904816170470000B9
:1007100044F21C30C2F200000068704740F2000052
:1007200044F21C31C2F20000C2F2000100780A68F3
:10073000104408607047000080B543F60040C4F2E2
:100740000200016841F400710160016841F48061B8
:100750000160016841F480710160032000F0BEF87F
:100760000F2000F005F800F059F8002080BD0000CF
:10077000B0B586B0002543F644010195C4F20201EC
:100780000A68044642F002020A60096801A801F002
:10079000020101910199694600F062F900F080F9C7
:1007A0004DF683614000C4F21B31A0FB01014FF004
:1007B000FF3000EB914140F2841040F20042C2F25F
:1007C0000000C4F2010240F2E733C0E90021C0E9B1
:1007D00002530561856100F087FB08B106B0B0BD2A
:1007E00040F28410C2F2000000F0AEFB0028F5D108
:1007F0002C2000F035F80F2C0CD82C20214600229C
:1008000000F040F840F204010020C2F200010C6048
:1008100006B0B0BD012006B0B0BD000082B000201F
:1008200043F640010190C4F202014A6842F480425A
:100830004A604A6802F480420192019A0090086876
:10084000002240F08050086008680F2100F08050BE
:10085000009000986FF0010002B000F013B80000A3
:10086000002848BF704700F01F01012202FA01F181
:100870001C2202EAD0004EF20012CEF20002815099
:100880007047000010B54EF60C5CCEF2000CDCF8A0
:100890000030C3F3022E8EF00704042C28BF04247A
:1008A000BEF103034FF0FF3E0EFA04F438BF0023FD
:1008B000A14399400EFA03F39A43114300F00F024B
:1008C00000F160430901043A03F5644362440028DF
:1008D00048BF02F10C03197010BD00004EF60C5118
:1008E000CEF200010A684FF6FF031A4060F30A22B5
:1008F00042F0806040F0FD7008607047002804BF3F
:10090000012070472DE9F04143F60808C4F20208BF
:100910000446D8F8F8030D4600F00700884207D2D5
:1009200088F8F853D8F8F80300F00700A84277D108
:100930002068810717D5410705D5D8F8001041F484
:10094000E051C8F80010010705D5D8F8001041F4AF
:100950006041C8F80010D8F80010A26821F0F0013A
:100960001143C8F80010C00740D1D8F8F80300F0D0
:100970000700A84207D988F8F853D8F8F80300F020
:100980000700A8424CD12068410707D5D8F80010CD
:10099000E26821F4E0511143C8F80010000708D5BF
:1009A000D8F80000216920F4604040EAC100C8F88E
:1009B000000000F089F8D8F8001043F29A42C1F321
:1009C0000311C0F60002515C40F2080220FA01F166
:1009D00040F20400C2F200000068C2F2000211609E
:1009E000FFF7C6FE0020BDE8F08100BF6068811EF1
:1009F000022907D258F8081C89015CBF0120BDE814
:100A0000F08111E0012807D158F8081C89035CBF68
:100A10000120BDE8F08107E058F8081C890703D4DD
:100A20000120BDE8F08100BFD8F8001021F00301DB
:100A30000843C8F80000FFF76BFE064641F288370E
:100A4000D8F80000616800F00C00B0EB810F8CD08A
:100A5000FFF75EFE801BB842F2D90320BDE8F081AB
:100A60000F22026043F60802C4F20202136803F088
:100A700003034360136803F0F0038360136803F417
:100A8000E053C360D2F800C04FF4E05303EADC0344
:100A90000361D2F8F80300F0070008607047000017
:100AA00040F2080043F60801C2F20000C4F202015D
:100AB0000068096843F2AA42C1F34231C0F600025D
:100AC000515CC8407047000010B543F60404C4F2FE
:100AD0000204606800F00C0008280BD0042819BF3D
:100AE00042F20040C0F2F40047F64000C0F27D1030
:100AF00010BD00BF206821682368490247F6400105
:100B0000C0F27D1100F03F02C3F388105CBF42F2D7
:100B10000041C0F2F401A1FB00010023FFF7BAFB82
:100B200021680222C1F3014102EB4101B0FBF1F067
:100B300010BD0000002804BF012070472DE9F041DE
:100B400082B00446007843F60006C007C4F20206ED
:100B50000CD0B06800F00C00042840F081803068B0
:100B6000800303D56068002800F068812078800742
:100B70001BD5B06810F00C0F09D0B06800F00C0065
:100B8000082840F087807068400200F18380306858
:100B9000800703D5E068012840F050813068216962
:100BA00020F0F80040EAC10030602078000713D43C
:100BB000207840072AD4A569002D00F03A81B0685A
:100BC00000F00C00082840F0A580012D40F00E81B7
:100BD000012002B0BDE8F0816069002800F0828049
:100BE0000020C4F247200121C0F8801EFFF790FDCD
:100BF000054600BF706F8007DAD4FFF789FD401B00
:100C00000228F7D9032002B0BDE8F081306C5FEA1A
:100C1000C0080AD400200190306C40F0805030644D
:100C2000306C00F080500190019847F20007C4F248
:100C300000073868C00547D4386840F480703860D1
:100C4000FFF766FD054600BF3868C0053CD4FFF7D6
:100C50005FFD401B0228F7D9032002B0BDE8F081F8
:100C6000B06800F00C00082803D1706840023FF51E
:100C700076AF61683068B1F5803F07D0B1F5A02F3D
:100C800040F09A8040F480203060306840F480303A
:100C900030609AE0E068002840F20000C4F247208B
:100CA0005CD001210160FFF733FD05463068800705
:100CB0003FF574AFFFF72CFD401B0228F6D9032047
:100CC00002B0BDE8F08100BFA168306F012905D0F6
:100CD000052955D140F004003067306F40F0010025
:100CE000306756E00020C4F247200021C0F8801E83
:100CF000FFF70EFD054600BF706F80077FF558AF08
:100D0000FFF706FD401B0228F6D9032002B0BDE81C
:100D1000F08100BF0027C4F2472700203866FFF7A4
:100D2000F7FC022D05460DD13068800140F18A8024
:100D3000FFF7EEFC401B02284FF00300F4D902B08D
:100D4000BDE8F0813068800173D5FFF7E1FC401BFE
:100D500002284FF00300F5D9F1E700BF0021016040
:100D6000FFF7D6FC054600BF306880077FF51DAF52
:100D7000FFF7CEFC401B02284FF00300F4D9DEE75A
:100D800020F001003067306F002920F00400306748
:100D90007AD0FFF7BDFC054641F28837306F8007F7
:100DA00000F18480FFF7B4FC401BB842F6D9032061
:100DB00002B0BDE8F08100BF20F4803030603068C0
:100DC000002920F4802030607AD0FFF7A1FC05468E
:100DD000306880033FF5CAAEFFF79AFC401B6428D9
:100DE000F6D9032002B0BDE8F08100BF7068E16968
:100DF00000F480028A4221D1216A00F03F028A4237
:100E00001CD147F6C071626A0140B1EB821F15D157
:100E1000A16A4FF6FF73C903994300F44032A1F56C
:100E200080318A420AD1E16A00F07060B0EB016F54
:100E300004D1002002B0BDE8F08100BF012002B063
:100E4000BDE8F08104F11C052FCD084340EA821073
:100E5000D9034FF6FF729143A1F5803140EA056056
:100E60000843706001203866FFF752FC044600BF5B
:100E700030688001DDD4FFF74BFC001B02284FF0E7
:100E80000300F5D95BE700BFFFF742FC054641F2DE
:100E9000883700BF306F800708D5FFF739FC401B4B
:100EA000B8424FF00300F5D949E700BFB8F1000F91
:100EB0003FF581AE306C20F0805030647BE600BF9F
:100EC000FFF726FC054600BF306880037FF54EAE75
:100ED000FFF71EFC401B64284FF00300F4D92EE7F7
:100EE0007047000070470000002804BF01207047D1
:100EF00010B5044690F83D0028B9002084F83C0065
:100F0000204600F01FF8022084F83D002068211DD3
:100F100000F07CFA012084F8460084F83E0084F852
:100F20003F0084F8400084F8410084F8420084F8CF
:100F3000430084F8440084F8450084F83D00002014
:100F400010BD00007047000090F83D1001291CBF43
:100F500001207047022180F83D10006841F2FF72C5
:100F6000C168C4F20002904241F00101C1600DDC91
:100F700040F2FF71C4F20001884215DCB0F1804FED
:100F80002AD040F20041C4F2000123E040F2FF31D8
:100F9000C4F20101884213DC41F60001C4F20001F1
:100FA000884219D0002113E040F60001C4F200018C
:100FB000884211D040F60041C4F200010AE000BFAF
:100FC00044F20001C4F20101884205D040F2004120
:100FD000C4F20101884206D1816801F007010629A7
:100FE00004BF00207047016841F00101016000204A
:100FF000704700007047000070B504460068C5687F
:101000000669B10716D515F0020113D06FF0020181
:101010000161012121778069800703D02046FFF715
:10102000E9FF05E0204600F08FF8204600F08EF83A
:1010300000202077700719D515F0040016D020681D
:101040006FF00401016102212177806910F4407F73
:1010500004D02046FFF7CEFF06E000BF204600F098
:1010600073F8204600F072F800202077300717D57B
:1010700015F0080014D020686FF008010161042108
:101080002177C069800703D02046FFF7B3FF05E052
:10109000204600F059F8204600F058F8002020774C
:1010A000F00619D515F0100016D020686FF0100169
:1010B000016108212177C06910F4407F04D02046E7
:1010C000FFF798FF06E000BF204600F03DF82046FD
:1010D00000F03CF800202077F00718BF15F0010061
:1010E00002D1300609D412E020686FF001010161DD
:1010F000204600F02DF8300609D515F0800006D006
:1011000020686FF0800101612046FFF7E9FE70065C
:1011100009D515F0400006D020686FF0400101614C
:10112000204600F01FF8B00658BF70BD15F0200033
:1011300008D021686FF0200220460A61BDE87040A7
:10114000FFF7D0BE70BD0000704700007047000080
:10115000006840F20041C4F20101884218BF7047A4
:10116000FFF7DCBA70470000FEE7000010B541F25F
:10117000F52043F2FC42C0F60000C0F60002002158
:1011800000F034FA40F27004C2F20004206041F230
:10119000FD2043F2B442C0F60000C0F60002002178
:1011A00000F024FA606041F2193043F2D842C0F6F0
:1011B0000000C0F60002002100F018FAA06010BD87
:1011C0002DE9F04186B0002643F630000596CDE9C2
:1011D0000366CDE901660096C4F20200016841F29F
:1011E000000441F0100101600168C4F2020401F042
:1011F00010010091009900960168012241F08001E0
:10120000016001684FF0030801F08001009100992E
:1012100000960168012741F0010101600068032187
:1012200000F00100009000982046FFF76BFA1C20A8
:1012300001ADCDE90106204629460396FFF78AF95C
:1012400020462946CDE90187CDE90366FFF782F9FB
:1012500006B0BDE8F0810000FEE70000FEE70000F8
:10126000EFF30980BFF36F8F154B1A681EF0100F54
:1012700008BF20ED108A20E9F04F10602DE9090029
:101280004FF0500080F31188BFF34F8FBFF36F8F83
:1012900001F020FA4FF0000080F31188BDE809004A
:1012A00019680868B0E8F04F1EF0100F08BFB0ECE6
:1012B000108A80F30988BFF36F8F704700BF00BFAB
:1012C0007C00002000000000000000000000000082
:1012D000074B19680868B0E8F04F80F30988BFF33E
:1012E0006F8F4FF0000080F31188704700BF00BF80
:1012F0007C000020012000F037F9FBE741F20004F8
:10130000C4F2020420460121FFF7F4F94FF4FA7009
:1013100000F02AF9F6E70000012000F025F9FBE7CC
:1013200080B54EF21000CEF20000006801F0BCFE65
:10133000012808BF80BDBDE8804001F0F5BA00007B
:1013400070B592B006AC20463021FFF768F8002552
:1013500043F640000595CDE90355CDE901550095CB
:10136000C4F202000168022641F080510160006869
:1013700000F080500090009847F200000095C4F201
:101380000000016841F480410160006800F4804081
:1013900000900098012006904FF4803007904FF4A1
:1013A00080000D9019200E904FF4A870CDE90F0623
:1013B0000420119020460C96FFF7BCFB10B172B6CA
:1013C000FEE700BF0F20CDE901064FF4A0500490C6
:1013D0004FF48050059001A805210395FFF78EFA80
:1013E00010B172B6FEE700BF12B070BD4EF6885065
:1013F000CEF20000016841F4700101607047000006
:1014000040F28410C2F20000FFF7F6BDB0B540F61E
:10141000FF3E0568C4F2000E40F2004C7045C4F275
:10142000010C25DCB0F1804F2FD040F20043C4F214
:101430000003984229D040F60003C4F2000398420A
:1014400023D041F6FF73C4F20003984228DC7045B4
:101450003ADCB0F1804F5BD040F20043C4F20003AD
:10146000984255D040F60003C4F200034EE000BF9E
:1014700040F60043C4F20003984206D0604504D011
:101480000023C4F201039842DBD14B6825F07002BF
:1014900043EA020541F6FF73C4F200039842D6DD29
:1014A00043F6FF73C4F2010398421FDC42F20003CB
:1014B000C4F2000398422BD00023C4F201039842E7
:1014C00026D0604524D028E040F60043C4F2000353
:1014D00098421DD041F60003C4F20003984217D091
:1014E00041F60043C4F2000310E000BF44F20003E1
:1014F000C4F2010398420BD044F60003C4F2010386
:10150000984205D044F20043C4F20103984204D14A
:10151000CB6825F4407243EA02050A688C684B697F
:10152000C46240F480648262644504BF0969016357
:10153000026825F0800142F0040219430260012292
:1015400042610160B0BD0000FEE70000FFF7F4F863
:10155000FFF7F6FEFFF734FE00F016F8FFF706FE81
:1015600000F026F8FEE70000EFF3058100291CBF1C
:101570006FF005007047002804BF0020704780B559
:1015800000F05EFF002080BDEFF3058000281CBF47
:101590006FF00500704740F28010C2F20000016851
:1015A000002911BF4FF0FF3001210160002070477A
:1015B000EFF3058000281CBF6FF00500704740F274
:1015C0008010C2F20000016801291CBF4FF0FF30FB
:1015D000704780B54EF61F51CEF2000100220A700E
:1015E0000221016000F0F6FF002080BDF0B585B05B
:1015F0008C4600230493EFF30581B0B3A9BB2AB353
:101600009469002C08BF1824382C2ED81179C907EA
:101610002BD15669D2E902574FEA960E1168002E77
:10162000734608BF80231DB35C2F25D312690023A6
:10163000002A18BF002E18D0CDE90042724663463A
:10164000029501F0F5FC05B0F0BD00BF8023182421
:10165000002104AF9AB26346CDE9004701F0B8FC1F
:1016600000230499012808BF0B46184605B0F0BDB9
:1016700017B91269002AECD00023184605B0F0BD56
:101680002DE9F041044600F0C5FD40F27C06C2F2AF
:101690000006F06840F2BC250130F0603068C2F20C
:1016A000000558B13069002840F007813068E16AD0
:1016B000C06A884298BF3460FFE000BF3460F068C1
:1016C000012840F0FA80284600F04AFD05F1140098
:1016D00000F046FD05F1280000F042FD05F13C0058
:1016E00000F03EFD05F1500000F03AFD05F1640008
:1016F00000F036FD05F1780000F032FD05F18C00B8
:1017000000F02EFD05F1A00000F02AFD05F1B40067
:1017100000F026FD05F1C80000F022FD05F1DC0017
:1017200000F01EFD05F1F00000F01AFD05F58270D5
:1017300000F016FD05F58C7000F012FD05F59670B1
:1017400000F00EFD05F5A07000F00AFD05F5AA7089
:1017500000F006FD05F5B47000F002FD05F5BE7061
:1017600000F0FEFC05F5C87000F0FAFC05F5D2703B
:1017700000F0F6FC05F5DC7000F0F2FC05F5E67013
:1017800000F0EEFC05F5F07000F0EAFC05F5FA70EB
:1017900000F0E6FC05F5027000F0E2FC05F50770CC
:1017A00000F0DEFC05F50C7000F0DAFC05F51170B8
:1017B00000F0D6FC05F5167000F0D2FC05F51B70A4
:1017C00000F0CEFC05F5207000F0CAFC05F5257090
:1017D00000F0C6FC05F52A7000F0C2FC05F52F707C
:1017E00000F0BEFC05F5347000F0BAFC05F5397068
:1017F00000F0B6FC05F53E7000F0B2FC05F5437054
:1018000000F0AEFC05F5487000F0AAFC05F54D703F
:1018100000F0A6FC05F5527000F0A2FC05F557702B
:1018200000F09EFC05F55C7000F09AFC05F5617017
:1018300000F096FC05F5667000F092FC05F56B7003
:1018400000F08EFC05F5707000F08AFC05F57570EF
:1018500000F086FC05F57A7000F082FC05F57F70DB
:1018600000F07EFC05F5826000F07AFC05F2244071
:1018700000F076FC05F5876000F072FC05F24C4044
:1018800000F06EFC40F25818C2F20008404600F02A
:1018900067FC08F11407384600F062FC06F16400AA
:1018A00000F05EFC06F13C0000F05AFC06F150002E
:1018B00000F056FCC6F81C8037627068716A421CE2
:1018C000E06A72608842626488BF706200EB8000E8
:1018D00005EB8000211D00F085FC00F0BFFC3069A5
:1018E00088B13068E16AC06A884228BFBDE8F081EB
:1018F0004EF60450CEF200004FF080510160BFF36D
:101900004F8FBFF36F8FBDE8F081000040F27C0580
:1019100040F2BC264EF60458C2F20005C2F20006A0
:10192000CEF200084FF0805703E000BF204600F0E1
:10193000ADFCA868D0B100F06DFCA86CC468201D97
:1019400000F0E0FBE8680138E860A8680138A860AA
:1019500000F084FC94F859000228EAD00128E5D070
:1019600070B9206B00F092FCE0E700BF30680228FD
:10197000DFD3C8F80070BFF34F8FBFF36F8FD8E786
:101980004FF0500080F31188BFF36F8FBFF34F8F7C
:10199000FEE700002DE9F0470A9C8246206B1646C0
:1019A0000F46DDE908599100A5229846FEF72FFD64
:1019B000206B002F00EB8600A0F1040020F007064A
:1019C00044D0387884F83400D8B3787884F8350077
:1019D000B8B3B87884F8360098B3F87884F837004C
:1019E00078B3387984F8380058B3787984F83900B6
:1019F00038B3B87984F83A0018B3F87984F83B0022
:101A0000F8B1387A84F83C00D8B1787A84F83D008F
:101A1000B8B1B87A84F83E0098B1F87A84F83F00FB
:101A200078B1387B84F8400058B1787B84F8410065
:101A300038B1B87B84F8420000281CBFF87B84F8DA
:101A40004300002084F8430003E000BF002084F836
:101A500034000027201D372D28BF3725E562C4E953
:101A6000135700F089FB04F1180000F085FBC5F165
:101A70003800A06130465146424624616462676581
:101A800084F8587000F02CFBB9F1000F206018BFEB
:101A9000C9F80040BDE8F08708480068006880F396
:101AA00008884FF0000080F3148862B661B6BFF377
:101AB0004F8FBFF36F8F00DF00BF000008ED00E025
:101AC00081B00020009040F20C00C2F200000068DB
:101AD0004FF0500181F31188BFF36F8FBFF34F8F29
:101AE000013007D0FEE700BF009830B9009820B958
:101AF000009810B900980028F6D001B07047000097
:101B000088B040F2F40AC2F2000A0DF11009EB4667
:101B1000DAF8080005681DB1C068046801E000BF7C
:101B2000002400F0CFFD01F0CFFADAF810100646DD
:101B3000884220D3002DCAF8106051D0A6424FD35E
:101B400001F0CCFBDAF80800C068C7683D1D2846E4
:101B500000F0D8FA97F82800410745D400F0FA00C1
:101B600087F8280082E000BF7860DAF8080029468C
:101B70003F6100F005FBDAF80800016831B3C06886
:101B8000C76804683D1D284600F0BCFA396A38462B
:101B9000884797F828004007EDD5B8692044A0424F
:101BA000E2D8DAF80000002800F04081002004A903
:101BB00091C101F079FADAF80000494600220023C9
:101BC00000F038FF0028D6D130E100BFDAF80C1061
:101BD000CAF81060CAE9021001F080FB4FE000BFB4
:101BE00065B1002210E000BFB8693F610119B14240
:101BF00079601DD90AF108001FE000BFDAF80C0077
:101C00000068B0FA80F04209DAF80000A11B00F089
:101C1000EDFB01F063FB90BB4EF60450CEF20000EA
:101C20004FF080510160BFF34F8FBFF36F8F26E0FD
:101C3000311B814206D20AF10C000068294600F0EF
:101C40009FFA13E0DAF80000002800F00D81002070
:101C500004A991C101F028FADAF8000049460022EF
:101C6000002300F0E7FE002800F0FE80396A3846C5
:101C7000884704E00AF10C02106800F081FADAF8F3
:101C800000005946002201F035F800283FF440AF2B
:101C90000098B0F1FF3F06DCDDE901200399904791
:101CA00000980028EBD4029E706910B1301D00F03E
:101CB00029FA01F009FADAF81010074688420CD325
:101CC0000098CAF8107009283DD9D8E76860DAF89A
:101CD000080021462D6100F053FADAF80800016887
:101CE00041B3C068C568D0F800802C1D204600F0C4
:101CF00009FA296A2846884795F828004007ECD554
:101D0000A86940444045E1D8DAF80000002800F016
:101D100083800020CDE90408069501F0C5F9DAF8C2
:101D2000000049460022002300F084FE0028D4D1A0
:101D300072E000BFDAF80C10CAE902100098CAF885
:101D4000107009289BD8DFE800F005050557415FB2
:101D50000505574196F82800B26940F00101019845
:101D600086F828101318314641F8043FBB4236610B
:101D700008D987420AF10802BFF47EAF834205D238
:101D80007AE700BF381A9042FFF474AF316A3046E8
:101D9000884796F8280040077FF571AFDAF8000011
:101DA00000284DD00198B169069608440021CDE97C
:101DB000041001F079F9DAF8000049460022002306
:101DC00000F038FE00287FF45AAF39E096F828007A
:101DD00040F00101019886F828100028B06139D040
:101DE000384431460AF10C0241F8040F3661B8421A
:101DF00088BF0AF108023FE796F8280000F0FE00CD
:101E000086F828003BE700BF96F828008107F5D444
:101E1000304600F03BFA32E74FF0500080F3118873
:101E2000BFF36F8FBFF34F8FFEE700BF4FF050003F
:101E300080F31188BFF36F8FBFF34F8FFEE700BFB2
:101E40004FF0500080F31188BFF36F8FBFF34F8FB7
:101E5000FEE700BF4FF0500080F31188BFF36F8F93
:101E6000BFF34F8FFEE700BF4FF0500080F31188A3
:101E7000BFF36F8FBFF34F8FFEE70000F0B581B067
:101E8000044600F0C7F994F94560012E0FDB04F118
:101E9000240500BF286850B1284601F0E5F9002864
:101EA00018BF00F017FBF0B2013E0128F2D8FF2660
:101EB00084F8456000F0D2F900F0ACF994F9447070
:101EC000012F0EDB04F11005286850B1284601F0FF
:101ED000CBF9002818BF00F0FDFAF8B2013F012845
:101EE000F2D884F8446001B0BDE8F04000F0B6B923
:101EF00070B5044600F0E6FB40F2301CC2F2000C64
:101F0000DCF8042052B19CF80000002818BF4FF004
:101F100000404FF0000544BB81E000BF40F21C7060
:101F2000C2F20000420700F5705200F1070122F0F2
:101F3000070218BF21F007000021A2F10803CCE935
:101F40000601CCF8043042E90211DCF80420191A29
:101F5000C0E9002101208CF800004FF00040CCE9DE
:101F60000211002C4FF0000559D0204057D124F029
:101F7000070000F11003600708BF04F10803DCF854
:101F80000800591E81424AD2604650F818EFDEF828
:101F900004509D422BD2DEF80010B9B174464D6852
:101FA0009D4217D20E68AEB175689D4216D2306858
:101FB000A0B145689D4215D204689CB165689D42F8
:101FC00014D22168A6460029E9D110E00CF11800CE
:101FD0000DE000BF8E46204609E000BFB646084629
:101FE00005E000BF8646304601E000BFA6469645A4
:101FF00014D00268DEF80040E91A112904604DD3BC
:102000000EEB0305680719D04FF0500080F31188DC
:10201000BFF36F8FBFF34F8FFEE700BF002501F0C6
:102020005DF968075AD04FF0500080F31188BFF374
:102030006F8FBFF34F8F00BFFEE700BF0CF118009A
:102040006960CEF8043000BF0168A9420AD208686E
:10205000A8420BD20168A94204D208680B46A842E4
:10206000F2D304E00346084601E000BF0B465C687B
:1020700069681E19AE4202D121441D4659606C1890
:10208000844207D1DCF80440A04203D0D0E9000428
:1020900021446960AB42286018BF1D60DEF804006F
:1020A000DCE9021302F10805091A9942CCF808107C
:1020B00038BFCCF80C109CF8001000294FF000013C
:1020C00018BF40F00040CEE90010DCF810000130ED
:1020D000CCF8100001F002F96807A4D1284670BDC1
:1020E000034641F6C12021F00101C0F600004FF087
:1020F000807C03E903106FF00201A3F1440043E97F
:10210000091270470169D0E90132D1F804C09A6020
:102110008445536008BF4A600022026108680138A4
:10212000086008687047000044F22053C2F20003C0
:10213000036044F22030C2F200000860802010608A
:102140007047000044F67C13C2F20003036044F2BF
:102150007C50C2F2000008604FF48070106070473D
:102160004FF0FF31024642F8081F00214260C0E9EB
:1021700003220160704700000021016170470000E8
:1021800010B5D1F800C01CF1010213D000F1080411
:1021900062681368634511D853681C68644511D898
:1021A0005A68146864450FD854682368A646634586
:1021B000EED90BE00269D2F804E007E09646224629
:1021C00004E000BF9E4601E096461A46C1F804E0CE
:1021D000CEF808108A605160086101680131016021
:1021E00010BD0000D0F800C0436808619A68C1E9DA
:1021F0000132516099600CF10101016070470000EB
:10220000DFF80C00016841F47001016070470000C4
:1022100088ED00E04FF0500080F31188BFF36F8F1E
:10222000BFF34F8F40F20C00C2F2000001684A1C5D
:10223000026009B1704700BF4EF60450CEF20000B4
:102240000068000608BF70474FF0500080F3118807
:10225000BFF36F8FBFF34F8FFEE7000040F20C001B
:10226000C2F20000016839B10139016018BF70473E
:10227000002080F3118870474FF0500080F31188E0
:10228000BFF36F8FBFF34F8FFEE7000070B50028DC
:1022900008BF70BD40F23014C2F20004217850F83B
:1022A000042C002918BF4FF0004111420ED0A0F1BC
:1022B00008052B68A3B14FF0500080F31188BFF3DD
:1022C0006F8FBFF34F8F00BFFEE700BF4FF050008E
:1022D00080F31188BFF36F8FBFF34F8FFEE700BF0E
:1022E00022EA010140F8041C064600F0EBF956F81A
:1022F000041CA0680844A06004F118000368AB4205
:102300000AD21868A84225D20368AB4204D21868E2
:102310001A46A842F2D301E0024618465368D6187E
:10232000AE4202D11944154651606B18834206D162
:102330006368984203D0D0E9000319446960AA4257
:10234000286018BF1560606901306061BDE87040A9
:1023500000F0C4BF1A465368D618AE42E5D1E1E793
:102360004EF21000CEF2000000210160816040F2C8
:102370000801C2F20001096844F6D352C1F26202B8
:10238000A1FB02124FF0FF3101EB921141600721D6
:102390000160704744F6D81CC2F2000CDCF8003033
:1023A00003B3634653F8082FEAB1634653F8102F7E
:1023B000CAB1634653F8182FAAB1634653F8202FC9
:1023C0008AB1634653F8282F6AB1634653F8302F19
:1023D0004AB15CF8382F002A634608BFC3E90010F1
:1023E000704700BF6346C3E90010704770B51546DB
:1023F0000E460446FFF70EFF94F84400FF2804BF82
:10240000002084F8440094F84500FF2804BF002011
:1024100084F84500FFF722FFA06B28B12046BDE8F5
:102420007040FFF72BBD00BF04F1240031462A465F
:1024300000F092F82046BDE87040FFF71FBD000095
:1024400070B588B340F27C04C2F20004616949B1FE
:102450004FF0500080F31188BFF36F8FBFF34F8FA1
:10246000FEE700BF6169064601316161A569216827
:1024700004310846FFF746FE2068AD19456005D3D4
:10248000206A21680431FFF77BFE08E0E0692168DB
:102490000431FFF775FEE06A854238BFE56200F05F
:1024A0001DFF002818BF70BD4EF60450CEF200008C
:1024B0004FF080510160BFF34F8FBFF36F8F70BD3E
:1024C00040F27C01C2F200018A6B026089694160BE
:1024D0007047000040F27C00C2F20000012101635D
:1024E0007047000070B5D8B140F27C04C2F200041D
:1024F0000D4621681831FFF743FEA66920680430B5
:10250000FFF700FE681C15D02068AD19456019D38F
:10251000206A21680431BDE87040FFF731BE00BF7A
:102520004FF0500080F31188BFF36F8FBFF34F8FD0
:10253000FEE700BF54F8500B011D2046BDE8704077
:10254000FFF750BEE06921680431FFF719FEE06A29
:10255000854238BFE56270BDF0B581B0C0B140F2D0
:102560007C04C2F200040D46216816461831FFF7BC
:1025700039FEA76920680430FFF7C4FD96B154F80E
:10258000500B011D204601B0BDE8F040FFF72ABE08
:102590004FF0500080F31188BFF36F8FBFF34F8F60
:1025A000FEE700BF2068ED19456007D3206A216867
:1025B000043101B0BDE8F040FFF7E2BDE0692168F9
:1025C0000431FFF7DDFDE06A854238BFE56201B006
:1025D000F0BD000010B588B00020CDE9050006A8C8
:1025E00005A904AAFFF7A0FD059800283ED0069C87
:1025F000002C45D05C21049A079107995C2949D1A8
:1026000007992063022084F8590007A80021CDE92A
:10261000001041F60D10C0F6000028A1002302941E
:10262000FFF7B8F92046FFF72BF8079840F27C0433
:10263000C2F20004A062B0B100F0C8FE411C33D069
:10264000012810D14FF0500080F31188BFF36F8F35
:10265000BFF34F8F4FF0FF30E06201202061002078
:10266000A06100F09DF808B010BD00BF4FF0500011
:1026700080F31188BFF36F8FBFF34F8FFEE700BF6A
:102680004FF0500080F31188BFF36F8FBFF34F8F6F
:10269000FEE700BF4FF0500080F31188BFF36F8F4B
:1026A000BFF34F8FFEE700BF4FF0500080F311885B
:1026B000BFF36F8FBFF34F8FFEE700BF49444C4518
:1026C0000000000040F27C00C2F2000041690131CC
:1026D0004161704780B540F27C0EC2F2000EDEF818
:1026E000141019B10121CEF8301080BD0021CEF8B0
:1026F0003010DEF8241040F2BC2C01EB8102C2F253
:10270000000C5CF82230002B0CEB82030CD05868D4
:10271000426803F1080082425A6023D0D068CEF8A4
:102720000000CEF8241080BD283B19B35A6901EB94
:102730008100002A0CEB800226D101291AD01868EA
:1027400030BB022916D053F8140C28BB032911D032
:1027500053F8280C04390028A3F15003E5D028339E
:10276000D5E700BF52685A60D068CEF80000CEF8B6
:10277000241080BD4FF0500080F31188BFF36F8F9D
:10278000BFF34F8FFEE700BFA2F114030139BEE78C
:10279000A2F128030239BAE7A2F13C030339B6E7F4
:1027A000B0B584B04EF2004CCEF2000C4CF2702169
:1027B000C4F20F11DCF800294B1C9A420AD14FF0E9
:1027C000500080F31188BFF36F8FBFF34F8F00BFAE
:1027D000FEE700BFDCF800298A4209D14FF0500023
:1027E00080F31188BFF36F8FBFF34F8FFEE700BFF9
:1027F0009CF800100291FF218CF800109CF800104A
:102800008DF807109DF8071001F0500240F25011AA
:10281000C2F200010A7007224A609DF90720B2F156
:10282000FF3F6BDC032200BFD31C4B609DF8070009
:1028300040008DF807009DF90700B0F1FF3F24DC50
:10284000931C4B609DF8070040008DF807009DF930
:102850000700B0F1FF3F18DC531C4B609DF80700E8
:1028600040008DF807009DF90700B0F1FF3F0CDC38
:102870004A609DF80700043A40008DF807009DF972
:102880000700B0F1FF3FCFDD131D032B36D14FF40E
:102890004070486002988CF80000DCF8200940F491
:1028A0007000CCF82009DCF8200940F07040CCF82A
:1028B0002009FFF755FD40F20C04C2F20004002588
:1028C0002560FFF79DFC4EF63470CEF200000168E3
:1028D00041F040410160FFF7DFF8FFF7FBFE039591
:1028E00020684FF0500181F31188BFF36F8FBFF361
:1028F0004F8F013012D000BFFEE700BF4FF05000F5
:1029000080F31188BFF36F8FBFF34F8FFEE700BFD7
:10291000039830B9039820B9039810B90398002898
:10292000F6D0002004B0B0BD80B54FF0500080F369
:102930001188BFF36F8FBFF34F8F00F0CBFB30B127
:102940004EF60450CEF200004FF08051016000209E
:1029500080F3118880BD000070B582B060B1ABB16A
:10296000F1B9EAB14FF0500080F31188BFF36F8FD7
:10297000BFF34F8FFEE700BF4FF0500080F3118888
:10298000BFF36F8FBFF34F8FFEE700BF4FF05000D4
:1029900080F31188BFF36F8FBFF34F8FFEE700BF47
:1029A00051B14AB94FF0500080F31188BFF36F8FD7
:1029B000BFF34F8FFEE700BF50250195019D502DBD
:1029C0002ED1019C069E012483F84640002908BFB1
:1029D0001A461A60C3E90F011C46FFF71BFC20686A
:1029E000D4E90F12002502FB0103013901FB0201AA
:1029F000A563C4E90103FF20E16084F8440084F882
:102A0000450004F11000FFF7ABFB04F12400FFF7D1
:102A1000A7FBFFF723FC204684F84C6002B070BD92
:102A20004FF0500080F31188BFF36F8FBFF34F8FCB
:102A3000FEE700002DE9F04F83B00292C0B11D46C1
:102A40000446F9B1022D02D1E06B01285CD1164693
:102A50000F4600F029FB18BB16B34FF0500080F36F
:102A60001188BFF36F8FBFF34F8F00BFFEE700BF2A
:102A70004FF0500080F31188BFF36F8FBFF34F8F7B
:102A8000FEE700BF206C0028DCD04FF0500080F340
:102A90001188BFF36F8FBFF34F8F00BFFEE700BFFA
:102AA000FFF7B8FBA06B022D65D0E16B884262D3C3
:102AB0000298002800F018816846FFF701FDFFF733
:102AC000CDFBFFF7FFFDFFF7A5FB94F84400FF28BF
:102AD00004BF002084F8440094F84500FF2804BF98
:102AE000002084F84500FFF7B9FB684602A900F012
:102AF00021FA98B12046FFF7C1F900F0EFFB002062
:102B000003B0BDE8F08F00BF4FF0500080F3118894
:102B1000BFF36F8FBFF34F8FFEE700BF04F11008C4
:102B2000FFF778FBD4F83890E66BFFF797FBB145D9
:102B300016D102994046FFF7D5FC2046FFF79EF9D3
:102B400000F0CCFB88B94EF60450CEF200004FF0F6
:102B500080510160BFF34F8FBFF36F8F05E000BF5F
:102B60002046FFF78BF900F0B9FBFFF753FBA06B92
:102B7000E16B884266D2A66B226CDAB139462DB37E
:102B8000E068FDF7FFFBE168206C2268091A9142BA
:102B9000E16003D2A16840420844E060A81EB0FA98
:102BA00080F040093146002E18BF01210840361A36
:102BB00018E000BF2068A8B9A06800F00DFB002154
:102BC000B0FA80F0A16040090DE000BF6068FDF739
:102BD000D9FBD4E90101226C10448842606001D322
:102BE000206860600120711CA16354F8241FA9B102
:102BF000204600F039FB50B14EF60450CEF20000F2
:102C00004FF080510160BFF34F8FBFF36F8FFFF71D
:102C100025FB012003B0BDE8F08F00BF0028F6D1EE
:102C20004EF60450CEF200004FF080510160BFF329
:102C30004F8FBFF36F8FFFF711FB012003B0BDE88B
:102C4000F08F00BFE94602AE0CE000BF2046FFF760
:102C500015F900F043FBFFF7DDFAA06BE16B88424A
:102C6000FFF489AF029800283ED0FFF7F7FAFFF78C
:102C700029FDFFF7CFFA94F84400FF2804BF002095
:102C800084F8440094F84500FF2804BF002084F82D
:102C90004500FFF7E3FA4846314600F04BF90028BB
:102CA0007FF428AFFFF7B6FAD4F838A0D4F83CB0D8
:102CB000FFF7D4FADA45C9D102994046FFF712FC72
:102CC0002046FFF7DBF800F009FB0028C3D14EF6E1
:102CD0000450CEF200004FF080510160BFF34F8FDF
:102CE000BFF36F8FB7E700BFFFF7B8FA002003B05C
:102CF000BDE8F08F2DE9F04F83B0029290B11546F8
:102D00000446002948D00E4600F0CEF9A0B99DB186
:102D10004FF0500080F31188BFF36F8FBFF34F8FD8
:102D2000FEE700BF4FF0500080F31188BFF36F8FB4
:102D3000BFF34F8FFEE700BFFFF76CFAD4F838A05F
:102D4000BAF1000F36D0226C52B1D4E902313046CC
:102D50001144E160994224BF2168E160FDF712FB54
:102D6000AAF10100A06354F8100F70B1204600F0E2
:102D70007BFA50B14EF60450CEF200004FF0805175
:102D80000160BFF34F8FBFF36F8F0124FFF766FA27
:102D9000204603B0BDE8F08F206C0028B3D04FF080
:102DA000500080F31188BFF36F8FBFF34F8F00BFC8
:102DB000FEE700BF0298002800F0B4806846FFF7E5
:102DC0007FFBFFF74BFAFFF77DFCFFF723FA94F840
:102DD000440004F12408FF2804BF002084F84400C4
:102DE00094F84500FF2804BF002084F84500FFF751
:102DF00035FA684602A900F09DF878B12046FFF741
:102E00003DF800F06BFAFFF705FAA56BFFF726FA1D
:102E10002DBB0024204603B0BDE8F08FFFF7FAF980
:102E2000A56BFFF71BFA2DB12046FFF727F800F03E
:102E300055FA14E002994046FFF754FB2046FFF78D
:102E40001DF800F04BFA50B94EF60450CEF20000D7
:102E50004FF080510160BFF34F8FBFF36F8FFFF7CB
:102E6000D9F9D4F838A0BAF1000F7FF46CAF4FF065
:102E70000009EB4602AF13E02046FEF7FFFF00F02B
:102E80002DFAFFF7C7F9A56BFFF7E8F9002DC0D0C1
:102E9000FFF7C0F9D4F838A0BAF1000F7FF453AFB0
:102EA000029800283ED0FFF7D9F9FFF70BFCFFF797
:102EB000B1F994F84400FF2808BF84F8449094F8CE
:102EC0004500FF2808BF84F84590FFF7C7F958462A
:102ED000394600F02FF80028CED1FFF79BF9A56BFB
:102EE000FFF7BCF935B12046FEF7C8FF00F0F6F950
:102EF000CEE700BF02994046FFF7F4FA2046FEF7FE
:102F0000BDFF00F0EBF90028C2D14EF60450CEF21E
:102F100000004FF080510160BFF34F8FBFF36F8F00
:102F2000B6E700BF0024FFF799F9204603B0BDE8DB
:102F3000F08F0000B0B548B30C4689B30546FFF7E3
:102F400069F940F27C0CC2F2000CDCF818302268FF
:102F5000501C2FD0AE46D5E90050DCF83810A942FD
:102F600001D083422ED2181A824229D9101A206029
:102F7000DCF838000024CEF80000DCF81800CEF8A9
:102F80000400FFF76BF92046B0BD00BF4FF05000C2
:102F900080F31188BFF36F8FBFF34F8FFEE700BF41
:102FA0004FF0500080F31188BFF36F8FBFF34F8F46
:102FB000FEE700BF0024FFF751F92046B0BD00BF77
:102FC000002020600124FFF749F92046B0BD000031
:102FD0002DE9F04184B007469000984615460E460C
:102FE000FEF786FFF8B104465C20FEF781FFB8B11A
:102FF000DDE90A210023046380F85930CDE900217E
:103000000446384631462A4643460294FEF7C2FC3F
:103010002046FEF735FB012004B0BDE8F08100BF7B
:103020002046FFF733F94FF0FF3004B0BDE8F081E0
:1030300070B586B00B9CCCB10C9E0EB35C2504958C
:10304000049D5C2D26D1049DDDF828C0022586F85C
:10305000595005AD3463CDE900C50296FEF79AFCE0
:103060003046FEF70DFB059806B070BD4FF05000DE
:1030700080F31188BFF36F8FBFF34F8FFEE700BF60
:103080004FF0500080F31188BFF36F8FBFF34F8F65
:10309000FEE700BF4FF0500080F31188BFF36F8F41
:1030A000BFF34F8FFEE7000040F27C00C2F2000049
:1030B000016900290FBF01204069B0FA80F0400982
:1030C00018BF40007047000040F27C00C2F20000D0
:1030D000806970472DE9F04381B040F27C06C2F26E
:1030E0000006706940B1706B0024013070632046A7
:1030F00001B0BDE8F08300BFB06910F10109C6F866
:10310000189020D3F069006850B14FF0500080F360
:103110001188BFF36F8FBFF34F8F00BFFEE700BF73
:10312000F069316AF1613062B06B0130B063F0690F
:10313000006828B1F069C068C068406802E000BF5C
:103140004FF0FF30F062F06A40F2BC288145C2F2D5
:10315000000801D200242EE0F0690024006813E08A
:10316000F86A716A884288BF706200EB800008EBE1
:1031700080002946FFF736F8F86A3168C96AF269B3
:10318000884228BF0124106890B1F069C068C76800
:103190003D4655F8040F81450CD32846FEF7B2FF93
:1031A000B86A0028DCD007F11800FEF7ABFFD7E7BC
:1031B0004FF0FF30F0623068C06A00EB800058F8D2
:1031C0002000012888BF0124306B002818BF01248B
:1031D000204601B0BDE8F08370B588B140F27C05AF
:1031E000C2F20005296881420CD04FF0500080F3F4
:1031F0001188BFF36F8FBFF34F8F00BFFEE700BF93
:10320000002070BD016D29B3013901654FF0000147
:103210001DD1C26AC36C9A4219D0041D06462046CD
:10322000FEF770FFF06CC0F13801F062B161696ABD
:10323000884240F2BC2188BF686200EB8000C2F285
:10324000000101EB80002146FEF7CCFF012108467A
:1032500070BD00BF4FF0500080F31188BFF36F8F37
:10326000BFF34F8FFEE7000070B5C068C5686DB151
:1032700005F118042046FEF745FF40F27C06C2F235
:103280000006706960B106F164001AE04FF050006A
:1032900080F31188BFF36F8FBFF34F8FFEE700BF3E
:1032A0002C1D2046FEF72EFFE86A716A884240F224
:1032B000BC2188BF706200EB8000C2F2000101EB0C
:1032C00080002146FEF78EFFE86A3168C96A8842AD
:1032D00092BF00200120306370BD00002DE9F04155
:1032E00040F27C05C2F20005686968B1FEF792FF02
:1032F000686901386861686980B10024FEF7AEFF33
:103300002046BDE8F08100BF4FF0500080F31188E7
:10331000BFF36F8FBFF34F8FFEE700BFE868002851
:10332000EBD0686E88B340F2BC26C2F200064FF0C4
:10333000010800BF286FC76807F11800FEF7E2FE1A
:103340003C1D2046FEF7DEFEF86A696A884288BFA7
:10335000686200EB800006EB80002146FEF742FF2A
:10336000F86A2968C96A884228BFC5F83080686E43
:103370000028DFD1E869006820B1E869C068C0684A
:10338000406801E04FF0FF30E8626C6B4CB1012601
:10339000FFF7A0FE002818BF2E63013CF8D10020E3
:1033A0006863286B0028A8D04EF60450CEF20000C7
:1033B0004FF080510160BFF34F8F0124BFF36F8F37
:1033C000FEF74CFF2046BDE8F081000070B586B0E6
:1033D000FEF720FF40F2F406C2F20006306808BB98
:1033E00006F114042046FEF7BBFE06F12805284628
:1033F000FEF7B6FE40F2CC1240F26C23C6E902455D
:103400000025C2F20002C2F200030A20102100953A
:10341000FFF7A2FA306028B143F23F51C0F6000135
:10342000FEF7B8FFFEF71AFF3068D8B10020CDE9EB
:10343000040005A804A903AAFEF784FEDDE9032021
:103440000221059DCDE9001041F60130C0F60000D3
:1034500009A100230295FFF7EBFD706010B1012078
:1034600006B070BD4FF0500080F31188BFF36F8F2E
:10347000BFF34F8FFEE700BF546D72205376630099
:10348000F1EE100A4FF6FF71C0F2C03120EA0100E0
:1034900040F04070E1EE100A7047000000000000AC
:1034A00000000102030406070809000000000102F1
:1034B0000304000035350008000000000000000093
:1034C00000000000000000000002000018000000E2
:1034D000000000000000000020350008000000008F
:1034E00000000000000000000000000000020000DA
:1034F000080000000000000000000000293500085E
:1035000000000000000000000000000000000000BB
:103510000002000018000000000000000000000091
:103520004C6564305F50574D0064656661756C741E
:103530005461736B004C6564305F4374726C00546B
:103540006D72510068350008000000201000000076
:10355000EC01000878350008100000200850000039
:103560000C02000800000000010000001000000034
:083570000024F400AAAAAAAA93
:040000050800018965
:00000001FF
